:100000000C946E010C94471A0C941C1A0C94F11960
:100010000C94C6190C949B190C9470190C944519E6
:100020000C941A190C9498010C9498010C94980152
:100030000C94A51B0C9498010C9498010C949801B5
:100040000C94D0180C9498010C949A180C94701875
:100050000C9498010C9498010C9498010C949801BC
:100060000C9498010C9498010C9498010C949801AC
:100070000C9498010C94961B0C9498010C94980184
:100080000C9498010C94721A0C9498013C03000093
:100090000000000B0D0000000000000101C0800006
:1000A000000000000000000000060000000000004A
:1000B0000000000000000000000000000000000040
:1000C000000000000000FF3F0000000000000000F2
:1000D0000000000000000000000000000000000020
:1000E0000000000000000000000000000000000010
:1000F0000000000000000000000000000000800080
:1001000000008000020080000100800003008000E9
:1001100003008000030080000300800003008000D3
:10012000030080000480FF000481FF00FF00000046
:10013000FF000000FF000000FF000000FF000000C3
:10014000FF000000FF000000FF000000FF000000B3
:10015000FF000000FF000000FF000000FF000000A3
:10016000FF000000FF000000FF000000FF00000093
:10017000FF000000FF000000FF000000FF00000083
:10018000FF000000FF000000FF000000FF00000073
:10019000FF000000FF000000FF0000000000000062
:1001A000000000000000000000000000000000004F
:1001B00000000000000000000000003A003700349A
:1001C00000310022006100640000003B003800356F
:1001D0000032002300620065007000740078007C2B
:1001E000008000840088008C009000940098009C9F
:1001F00000A000A400A800AC00B000B400B800BC8F
:1002000000C000C400C800CC00D000D400D800DC7E
:1002100000E000E400E800EC00F000F400F800FC6E
:10022000000001040108010C010000390036003310
:1002300000300021002000630005050505050505C7
:100240000502020202020202020707040404040477
:100250000404040707030303030303030307010163
:100260000101010101010606060606060606010255
:10027000040810204080010204081020408008106B
:10028000010204081020408001020102040810202D
:10029000408004804020100804020101020408107C
:1002A0002040800000000A0B0C000000000000014C
:1002B000040506000000000000000000000000002F
:1002C000000000000000000000000000000000002E
:1002D00000000000000000002A1CB92611241FBEE7
:1002E000CFEFD0E1DEBFCDBF11E0A0E0B1E0EAE1A9
:1002F000F1E500E00BBF02C007900D92AC35B107ED
:10030000D9F727E0ACE5B1E001C01D92A639B207EC
:10031000E1F711E0CDE6D1E004C02197FE010E9493
:100320000E27CC36D107C9F70E94CD1D0C9480282A
:100330000C94000020913B0730913C0721153105BA
:1003400049F090E0880F991F820F931FFC01808174
:100350009181089590E080E00895089581E0809370
:10036000630208952091620281E0213208F044C0C6
:1003700080913E028111FCCF8091610292E09093C6
:100380003E0291E090933D029FEF90933C021092C9
:100390003B0220933A02A1E4B2E0EAE1F2E090E00D
:1003A000291331C01092190290911902880F892BDC
:1003B0008093190280911802813049F51092180239
:1003C00080911902809373008091740083FDF8CFAF
:1003D00085EC8093740080913E028230E1F380913D
:1003E0003C028F3FB1F080913C028032A1F08091BD
:1003F0003C02803391F084E010924002109262023D
:1004000010923F0208953D9131939F5FC9CF85EED1
:10041000E0CF80E0F1CF82E0EFCF83E0EDCFFC01D1
:10042000538D448D252F30E0842F90E0821B930B59
:10043000541710F0CF96089501970895FC01918DFF
:10044000828D981761F0A28DAE0FBF2FB11D5D9602
:100450008C91928D9F5F9F73928F90E008958FEFA4
:100460009FEF0895FC01918D828D981731F0828D58
:10047000E80FF11D858D90E008958FEF9FEF0895AF
:10048000FC01918D228D892F90E0805C9F4F821B13
:1004900091098F7399270895FC01A48DA80FB92F96
:1004A000B11DA35ABF4F2C91848D90E001968F739C
:1004B0009927848FA689B7892C93A089B1898C91BB
:1004C00080648C93938D848D981306C00288F38981
:1004D000E02D80818F7D80830895EF92FF920F93AE
:1004E0001F93CF93DF93EC0181E0888F9B8D8C8DE0
:1004F000981316C0E889F989808185FF11C0EE89BB
:10050000FF896083E889F98980818064808381E044
:1005100090E0DF91CF911F910F91FF90EF900895A0
:10052000F62E0B8D10E00F5F1F4F0F731127E02E7B
:100530008C8D8E110CC00FB607FCFACFE889F989B3
:10054000808185FFF5CFCE010E944C02F1CFEB8D6B
:10055000EC0FFD2FF11DE35AFF4FF0820B8FEA895C
:10056000FB8980818062D2CFCF93DF93EC01888DAD
:100570008823B9F0AA89BB89E889F9898C9185FD1E
:1005800003C0808186FD0DC00FB607FCF7CF8C91AC
:1005900085FFF2CF808185FFEDCFCE010E944C0216
:1005A000E9CFDF91CF9108958CE992E00E9440025B
:1005B00021E0892B09F420E0822F089580E090E06B
:1005C000892B29F00E94D40281110E94000080E052
:1005D00090E0892B49F080E090E0892B29F00E947F
:1005E000000081110C94000008950895E091E60147
:1005F000F091E701309729F01092400210926202C8
:1006000009940895CF93DF93AC01E091E801F09154
:10061000E9013097F1F09091E5018091E40198179C
:10062000C0F090E0292F30E02617370754F4D901A5
:10063000A25ABE4F240F351FE90128812C939F5FDA
:10064000F1CF1092E5016093E401CB01DF91CF91EE
:100650000994DF91CF910895DC011296ED91FC9100
:10066000139711969C911197808161110EC09095FE
:10067000982390831496ED91FC9115979081119693
:100680008C918095892380830895623061F49095E0
:10069000982390831496ED91FC9115978081119683
:1006A0009C91892BF0CF982B90830895AF92BF92A5
:1006B000CF92DF92EF92FF920F931F93CF93DF932E
:1006C0006C017B018B01040F151FEB015E01AE185D
:1006D000BF08C017D10759F06991D601ED91FC917F
:1006E0000190F081E02DC6010995892B79F7C501AC
:1006F000DF91CF911F910F91FF90EF90DF90CF90FE
:10070000BF90AF90089581508C3088F5E82FF0E0CD
:10071000E457FC4F0C940E27B403B403B7039803BB
:100720009C039F03A203B703B703A603AC03B00364
:100730008FB58F778FBD08958FB58F7DFBCF8FB528
:10074000877FF8CF85B58F7D85BD089580918B001B
:100750008F7780938B00089580918B008F7DF9CFE8
:1007600080918B00877FF5CF83B78F7D83BF0895FE
:100770001F93CF93DF93282F30E0F901ED55FD4F04
:100780008491F901E259FD4FD491F901E75CFD4FE5
:10079000C491CC23A9F0162F81110E948303EC2F62
:1007A000F0E0EE0FFF1FE753FE4FA591B4918FB716
:1007B000F894EC91111108C0D095DE23DC938FBF23
:1007C000DF91CF911F910895DE2BF8CFCF93DF9368
:1007D00090E0FC01E259FD4F2491875C9D4FFC01A4
:1007E00084918823D1F090E0880F991FFC01E75491
:1007F000FE4FA591B491FC01E753FE4FC591D491F2
:1008000061110EC09FB7F8948C91E22FE0958E2372
:100810008C932881E223E8839FBFDF91CF910895D5
:100820008FB7F894EC91E22BEC938FBFF6CF3FB7E4
:10083000F8948091DA019091DB01A091DC01B091F4
:10084000DD0122B706B600FE05C02F3F19F0019664
:10085000A11DB11D3FBFBA2FA92F982F8827BC011A
:10086000CD01620F711D811D911D42E0660F771F42
:10087000881F991F4A95D1F708958F929F92AF9242
:10088000BF92CF92DF92EF92FF924B015C010E94E8
:1008900017046B017C010E9417046C197D098E09F5
:1008A0009F09683E734081059105A8F321E0821AF3
:1008B0009108A108B10888EEC80E83E0D81EE11C9B
:1008C000F11C81149104A104B10429F7FF90EF9069
:1008D000DF90CF90BF90AF909F908F90089561E090
:1008E00087E10E94B80364E070E080E090E00E943D
:1008F0003D0460E087E10C94B8030C946F042FB7BB
:10090000F8946091D6017091D7018091D8019091AF
:10091000D9012FBF0895E82FF0E0DF01AA0FBB1F18
:10092000A050BF4F11967C936E938830A8F4E55683
:10093000FB4F0C940E27A304AD04BA04C804D604DC
:10094000DD04E804F40480916A008C7F482B409316
:100950006A0089B7816089BF089580916A00837FAA
:10096000440F551F440F551F482B40936A0089B709
:100970008260F1CF80916A008F7C74E0440F551F34
:100980007A95E1F7482B40936A0089B78460E3CFFA
:1009900080916A008F7366E0440F551F6A95E1F7F6
:1009A000482B40936A0089B78860D5CF8AB78C7F7F
:1009B000482B4ABF89B78061CECF8AB7837F440F67
:1009C000551F440F551F482B4ABF89B78062C3CFBC
:1009D0008AB78F7C24E0440F551F2A95E1F7482BF6
:1009E0004ABF89B78064B7CF8AB78F7396E0440F48
:1009F000551F9A95E1F7482B4ABF89B78068ABCF5E
:100A0000883010F40C948B0408950E9417042091F0
:100A1000D3013091D401FB01E21BF30B209183023F
:100A200030918402E217F30708F438C1209185025F
:100A3000309186027093D4016093D3014091870274
:100A4000509188024130510599F148F042305105EA
:100A500009F4B9C04330510509F4EFC00895E21715
:100A6000F30708F0D4C080918A028F5F80938A02D6
:100A70008B3008F413C181E090E09093880280935A
:100A8000870241E050E065E075E080917D020E94C0
:100A900000051092D20182E590E090938602809347
:100AA000850283E290E0909384028093830208950C
:100AB0004091D2014130A9F038F0433009F449C0E7
:100AC000443009F47CC00895E217F30730F491E054
:100AD0009093D201E093D101089584E08093D201F4
:100AE0000895E217F30798F51092D20190918A02C7
:100AF0009F5F90938A028E2FEE0F990B2091D10168
:100B0000821B910927FD939597FF03C091958195CD
:100B1000910949970CF4C2C0109288021092870282
:100B200082E990E0909386028093850282E590E0CE
:100B3000909384028093830210928A0240916B0208
:100B400050E065E075E080917D020C94000583E043
:100B5000C5CFE217F30700F380916B02833061F594
:100B600082E080936B0282E090E090938802809311
:100B7000870282E990E0909386028093850282E565
:100B800090E0909384028093830210928C021092E2
:100B90008E0210928F021092900210929102109287
:100BA00092021092930280918A0280938D02109299
:100BB0008A0210928B02C2CF40936B02D4CFE2170D
:100BC000F30788F6A9CF50918A025F5F50938A029B
:100BD00040918B02440FE217F307E0F040938B0241
:100BE000583009F05BC0E0918C02E630A9F4109215
:100BF00088021092870282E990E0909386028093A7
:100C0000850282E590E090938402809383021092A3
:100C10008A0208954160E2CF83E090E090938802D9
:100C20008093870280918B0291E09E0F90938C02BB
:100C3000F0E0E957FD4F87830895E217F307F8F4D2
:100C4000109288021092870210928A0282E990E044
:100C5000909386028093850282E590E090938402CF
:100C60008093830288E0ECE8F2E0A4E9B2E001902E
:100C70000D928A95E1F781E0809389020895809131
:100C80008C02863009F4B3CF82E090E09093880222
:100C90008093870210928A0210928B02089580E05E
:100CA00090E0892B29F08091820283FD0C94000052
:100CB0000895E82FF0E0E451FE4F608308950F930C
:100CC0001F93CF93DF93FC018281813051F008F4B0
:100CD00080C0823009F477C0DF91CF911F910F91CE
:100CE00008950181C02FD0E0108161E0812F0E9422
:100CF000E603209741F460E0812FDF91CF911F91AF
:100D00000F910C94B803CF3FD10511F461E0F4CFFB
:100D1000E12FF0E0ED55FD4FE491E150EC3008F0AB
:100D20004DC0F0E0EA56F94F0C940E27A206A20639
:100D3000DE06A706AD06B306BB06DE06DE06C00667
:100D4000CA06D40683B7806283BF01BFC5CF8FB503
:100D500080688FBDDBBDCABDBFCF8FB580628FBD40
:100D6000D9BDC8BDB9CF8FB588608FBDD09379008C
:100D7000C0937800B1CF85B5806285BD03BDACCF8F
:100D800080918B00806880938B00D0938700C09304
:100D90008600A2CF80918B00806280938B00D093DD
:100DA0008500C093840098CF80918B0088608093E9
:100DB0008B00D0938300C09382008ECFC038D105C2
:100DC0000CF0A4CF98CF8181A381B0E0A451BE4F95
:100DD0008C9361E0808191CF0F931F93CF93DF932A
:100DE000D62F8C01C0E0CD1741F0F801819191918F
:100DF0008F010E945F06CF5FF6CFDF91CF911F91E9
:100E00000F910895CF93DF93DC01EC91F0E0EE0FAA
:100E1000FF1FE75DFD4FC591D491988111968C918C
:100E2000982381E009F480E0DF91CF910895DC01FF
:100E300070E0FB01E259FD4FE4911196EC9311979C
:100E4000675C7D4FFB0124912C9330E0220F331F10
:100E5000F901E754FE4F8591949113969C938E93DC
:100E60001297F901E753FE4F8591949115969C9343
:100E70008E9314970895FC018081813089F4CB0111
:100E8000845893408897C0F06138F3E07F07A1F061
:100E90006C5F734081E06530710578F080E0089503
:100EA000823021F4CB018C5A9340ECCF833061F730
:100EB000CB01845D9340E6CF81E00895CF93DF932B
:100EC000FC0121812F3FF9F0EC0161E0858D968DC9
:100ED0000E942C03AD8DBE8D1496ED91FC9115975B
:100EE000908111968C9180958923808361E070E0D8
:100EF00080E090E00E943D0460E08D8D9E8DDF914A
:100F0000CF910C942C0380E090E0892B21F0DF91AD
:100F1000CF910C940000DF91CF91089585ED8093DF
:100F200074008091740084FDFCCF10923E020895FD
:100F300020919E01260F3327331F21323105ECF417
:100F400020913E02FC0190E080E0243069F082E0D4
:100F50000895A0919E012191AC0142585E4FA40FCB
:100F6000B52FB11D2C930196861798F380919E01A1
:100F7000680F60939E0180E0089581E008950895D0
:100F8000E091E5018091E401E81730F4F0E0E25AE5
:100F9000FE4F808190E008958FEF9FEF089590912C
:100FA000E5018091E4012FEF3FEF981748F4E92F16
:100FB000F0E0E25AFE4F208130E09F5F9093E50120
:100FC000C90108958091E4019091E501891B990B75
:100FD0000895CF92DF92EF92FF920F931F93CF93DA
:100FE000DF937C01CB018A0120913F02222389F00B
:100FF000EB016B01C40ED51ECC15DD0569F06991BE
:10100000D701ED91FC910190F081E02DC701099588
:10101000F3CF642F0E949807C801DF91CF911F91F1
:101020000F91FF90EF90DF90CF900895CF93DF93D3
:101030001F92CDB7DEB7698320913F022223F9F0DA
:1010400020916202203258F021E030E0FC0133832D
:10105000228390E080E00F90DF91CF9108958091FE
:101060004002E82FF0E0EF5BFD4F998190838F5FA6
:10107000809340028093620281E090E0ECCF61E0D7
:10108000CE0101960E949807F7CF90E080E0089586
:101090000F931F93CF93DF9300D000D01F92CDB753
:1010A000DEB790910E02992329F189836A834B83DD
:1010B00010E001E080910E021817E0F4E091F901D0
:1010C000F091FA01E10FF11D808100933F028093BE
:1010D0006102109240021092620245E050E0BE01AF
:1010E0006F5F7F4F89E393E00E94E9070E94B2019E
:1010F0001F5FE0CF0F900F900F900F900F90DF9138
:10110000CF911F910F91089590910E0291110C941F
:10111000480808958F929F92AF92BF92CF92DF922C
:10112000EF92FF920F931F93CF930E941704AB018E
:10113000BC018091470390914803A0914903B0916D
:101140004A038A019B01081B190B2A0B3B0B809158
:101150004F03882309F47FC080915103909150037D
:10116000E92FEE0FFF0BA82F082E000CBB0BC3E6D8
:101170008C02E00DF11D1124EB5BFC4F178B068BED
:10118000053F11402105310508F054C09F5F909341
:101190005003909150039332C9F593E69A9F9001C2
:1011A0009B9F300D11242B5B3C4FF901E45AFF4FFC
:1011B000C0904B03D0904C03E0904D03F0904E0351
:1011C0004A015B018C189D08AE08BF0875016401D7
:1011D000C082D182E282F38229593F4FE1E0F0E000
:1011E000D901ED93FC938F5F8A3094F5809351037E
:1011F000E0915103B3E6EB02F0011124E455FC4FFA
:101200001182108210924F031092500340934703B3
:10121000509348036093490370934A03CF911F9101
:101220000F91FF90EF90DF90CF90BF90AF909F9085
:101230008F9008951092500391E090934F03409344
:101240004B0350934C0360934D0370934E03A1CF17
:1012500010925103CDCF053F114021053105B0F269
:1012600081E080934F0340934B0350934C03609372
:101270004D0370934E03CACFE82FF0E0E451FE4FC8
:1012800060830895CF93FC018281813029F098F02A
:10129000823061F0CF910895C08161E08C2F0E946F
:1012A000E60360E08C2FCF910C94B803A381B0E0EB
:1012B000A451BE4F1C9260E08081F5CF8093640200
:1012C000882321F08DE897E00C945F068DE897E085
:1012D0000C944209CF93C82F80916E028C1731F085
:1012E00081E0C11101C080E00E945E09C0936E02DE
:1012F00060E070E0CB01C1110E947F0460936F0237
:1013000070937002809371029093720280916E02CA
:101310008C1739F081E0C11101C080E0CF910C94AD
:101320005E09CF910895EF92FF920F931F93CF9391
:10133000DF938C01FC01C581D681209751F0E480B8
:10134000F12CEF1431F0899199910E944209F394A4
:10135000F8CFF801C085D185209751F0078110E0C2
:10136000011731F0899199910E9442091F5FF8CFCE
:10137000DF91CF911F910F91FF90EF9008952091F1
:101380003B0730913C072115310551F090E0880F63
:10139000991F820F931FFC01808191810C94930906
:1013A0000895CF9380913D07882369F180913E078E
:1013B00090913F07892B29F1C0E080913A07C81727
:1013C00000F58C2F86958695869590E0E0913E07F6
:1013D000F0913F07E80FF91F208130E043E0880FCC
:1013E000991F4A95E1F74C2F481B02C03595279568
:1013F0004A95E2F720FF03C08C2F0E94BF09CF5F00
:10140000DCCF10923D07CF9108950F931F93CF9398
:10141000DF9320913B0730913C072115310571F195
:1014200090E0880F991F820F931FFC01C081D1812A
:101430008B81882391F000913507109136078981BF
:101440009A810817190729F0CE010E9493091A837F
:10145000098389819A81019731F48D819E8100975A
:1014600069F06C8105C088859985009739F06F8196
:10147000DF91CF911F910F910C94EC06DF91CF91EA
:101480001F910F910895CF9380913D07811138C02E
:10149000C0E080913A07C81728F48C2F0E94BF093A
:1014A000CF5FF7CF80913E0790913F07892B29F1BD
:1014B000C0E080913A07C81700F58C2F8695869575
:1014C000869590E0E0913E07F0913F07E80FF91F05
:1014D000208130E043E0880F991F4A95E1F74C2FB7
:1014E000481B02C0359527954A95E2F720FF03C0B7
:1014F0008C2F0E94050ACF5FDCCF81E080933D07EF
:10150000CF91089520913507309136072817390774
:1015100061F0909336078093350780913D078823CB
:1015200021F00E94D1090C94430A08950F931F9350
:10153000CF93DF936115710541F061307105D9F0EA
:10154000DF91CF911F910F91089550913007581757
:10155000190629F0509133075817190689F70D31EC
:10156000110579F1642F0F371105B9F00F3011050E
:1015700051F06FE712C06091310770913207861702
:10158000970769F3DDCF4E30E0F450E8459FC00186
:1015900011246EE070E00E94D8262223D9F0606802
:1015A000132FD22FC42F40E085E20E944808C09339
:1015B00039078D2F912FDF91CF911F910F910C94AF
:1015C000820A4C31B0F650E8459FC00111246CE10D
:1015D00070E0E1CF6F77E4CFCF93C62F82309105D3
:1015E00009F456C020F4019769F1CF910895833032
:1015F000910509F48BC00497C1F785E160FFC0C075
:101600000E94050A86E1C1FFBEC00E94050A87E16B
:10161000C2FFBCC00E94050A88E1C3FFBAC00E9495
:10162000050A89E1C4FFB8C00E94050A8AE1C5FF26
:10163000B6C00E94050A8BE1C6FFB4C00E94050A2D
:101640008CE14AC080E064FF17C00E94050A81E077
:10165000C0FF15C00E94050A82E0C1FF13C00E94AE
:10166000050A83E0C2FF11C00E94050A84E0C3FF9F
:1016700035C0CF910C94050A0E94BF09E8CF0E94A3
:10168000BF09EACF0E94BF09ECCF0E94BF09EECF8D
:1016900085E060FF26C00E94050A86E0C1FF24C0E5
:1016A0000E94050A87E0C2FF22C00E94050A88E066
:1016B000C3FF20C00E94050A89E0C4FF1EC00E942B
:1016C000050A8AE0C5FF1CC00E94050A8BE0C6FF20
:1016D0001AC00E94050A8CE0C7FDCBCFCF910C94B5
:1016E000BF090E94BF09D9CF0E94BF09DBCF0E946A
:1016F000BF09DDCF0E94BF09DFCF0E94BF09E1CF44
:101700000E94BF09E3CF0E94BF09E5CF8DE060FFD3
:1017100022C00E94050A8EE0C1FF20C00E94050A77
:101720008FE0C2FF1EC00E94050A80E1C3FF1CC0FB
:101730000E94050A81E1C4FF1AC00E94050A82E1E5
:10174000C5FF18C00E94050A83E1C6FF16C00E94AB
:10175000050A84E1C1CF0E94BF09DDCF0E94BF0905
:10176000DFCF0E94BF09E1CF0E94BF09E3CF0E94F3
:10177000BF09E5CF0E94BF09E7CF0E94BF09E9CFAB
:101780000E94BF093FCF0E94BF0941CF0E94BF09FD
:1017900043CF0E94BF0945CF0E94BF0947CF0E9497
:1017A000BF0949CF0E94BF094BCF0E946A09ECE6EE
:1017B000F2E081E087831086E5E7F2E088E0DF0170
:1017C0001D928A95E9F708950C94C326DF92EF9253
:1017D000FF920F931F93CF93DF93D82E7B0181E06D
:1017E00090E00E94E40B90E00091300710E0C0917F
:1017F0003307D0E08017910721F08C179D0709F07F
:1018000050C0D0923907EA94EF2809F04DC08DE11D
:1018100090E00E94E40BF82E81E090E00E94E40B3F
:1018200090E00817190721F08C179D0799F4CE0155
:101830008C179D07B9F4809137079091380701976D
:1018400049F080913407882309F44AC01092380780
:1018500010923707DF91CF911F910F91FF90EF907A
:10186000DF9008958091350790913607019791F3A5
:10187000F0FE10C01092360710923507EBCF0C1710
:101880001D0711F18091350790913607892B11F3CF
:10189000F0FEF0CF81E090E090933607809335071B
:1018A000D9CFEA94EF28B1F28DE190E00E94E40BE9
:1018B000F82E81E090E00E94E40B90E08017910701
:1018C000F1F28C179D0731F6809137079091380718
:1018D000892B09F4BFCF80913407882309F4B6CF50
:1018E00081E090E09093380780933707B3CFCF9390
:1018F000863823E0920719F130F481389340D1F013
:101900008FEFCF910895873823E09207D9F0883878
:101910009340B1F786E893E00E94E40BC82F87E874
:1019200093E00E94E40B90E02FEFC29F800D911D89
:10193000112402C081E893E0CF910C94E40B86E877
:1019400093E0FACF87E893E0F7CFCF93C82F8FE2E9
:1019500090E00E94E40B811109C085E190E0CC2366
:1019600011F086E190E0CF910C94E40B80E0CF91F0
:101970000895CF93C82F8FE290E00E94E40B81116D
:1019800006C08C2F90E0CA96CF910C94E40B80E0B7
:10199000CF9108951F93CF93DF93EC018091640260
:1019A000882359F08FE090E00E94E40B182F80E12B
:1019B00090E00E94E40B181306C0CE01DF91CF9196
:1019C0001F910C94E40BFFCF0C94CA0CCF93DF93C0
:1019D00020917F02309180022F3F320721F0C90110
:1019E000DF91CF9108958091820287FF2BC086FFFF
:1019F0000FC089E090E00E94E40CC82F81E090E0E5
:101A00000E94E40C9C2F9093800280937F0215C06B
:101A100089E090E00E94E40CC82F81E090E00E94F1
:101A2000E40C90E4C99F90011124207C31708F73E5
:101A3000282B3093800220937F0280917F02909127
:101A40008002CECF85FF0CC081E190E00E94E40CC3
:101A5000C82F82E190E00E94E40CC05CDD0BD2CF85
:101A600081E090E00E94E40C90E0CDCFEF92FF92F5
:101A70000F931F93CF93DF936115710559F0613078
:101A8000710509F461C0DF91CF911F910F91FF9013
:101A9000EF900895309130073817190629F03091EA
:101AA00033073817190679F7C22F4330510509F467
:101AB00009C108F052C04130510509F472C04230EA
:101AC000510509F7822F8170F82E85E020FFE6C0CE
:101AD0000E94050A0C2F027086E0C1FFE2C00E943E
:101AE000050A1C2F147087E0C2FFDEC00E94050AA1
:101AF000DC2FD87088E0C3FFDAC00E94050A80910D
:101B00005C01FF2009F4D6C0816080935C01809164
:101B10005C01002309F4D0C0826080935C01809155
:101B20005C01112309F4CAC0846080935C01809138
:101B30005C01DD2309F4C4C0886080935C0140E04F
:101B400060915C0181E621C060913107709132079C
:101B50008617970709F4A8CF96CF4530510509F4A9
:101B600041C108F4FBC04630510509F08CCFD0913B
:101B70005D0180E024FF11C00E94050AD061D0936E
:101B80005D0140E060915D0180E6DF91CF911F91A2
:101B90000F91FF90EF900C9448080E94BF09DF7EE0
:101BA000EECF122F1071D0915D0180910A02811148
:101BB00055C0112309F44DC00E94050AD061D0938D
:101BC0005D0140E060915D0180E60E9448088C2F35
:101BD0008170E82E81E0C0FF4BC00E94050A8C2F67
:101BE0008270F82E82E0C1FF46C00E94050A0C2FC9
:101BF000047083E0C2FF42C00E94050ADC2FD87047
:101C000084E0C3FF3EC00E94050A80915D0111235C
:101C1000D9F1806180935D0180915D01EE20B1F189
:101C2000816080935D0180915D01FF2089F1826078
:101C300080935D0180915D01002361F18460809358
:101C40005D0180915D01DD2339F1886080935D0144
:101C500098CF80E00E94BF09DF7EB1CF8DE190E098
:101C60000E94E40C81FFB3CF80E0112399F3A4CF4D
:101C70000E94BF09B4CF0E94BF09B9CF0E94BF091B
:101C8000BDCF0E94BF09C1CF8F7EC4CF8E7FC9CF89
:101C90008D7FCECF8B7FD3CF877FD8CF0E94BF09D8
:101CA00019CF0E94BF091DCF0E94BF0921CF0E94FA
:101CB000BF0925CF8E7F29CF8D7F2FCF8B7F35CF4B
:101CC000877F3BCF822F8170F82E89E020FF32C0C2
:101CD0000E94050A0C2F02708AE0C1FF2EC00E94EC
:101CE000050A1C2F14708BE0C2FF2AC00E94050A4F
:101CF000DC2FD8708CE0C3FF26C00E94050A8091BB
:101D00005C01FF2019F1806180935C0180915C018E
:101D10000023F1F0806280935C0180915C011123CB
:101D2000C9F0806480935C0180915C01DD23A1F0A7
:101D3000806803CF0E94BF09CDCF0E94BF09D1CFD9
:101D40000E94BF09D5CF0E94BF09D9CF8F7EDCCFBB
:101D50008F7DE1CF8F7BE6CF8F77EFCE8DE020FFB9
:101D600029C00E94050A8EE0C1FF27C00E94050A13
:101D70008FE0C2FF25C00E94050A80E1C3FF23C097
:101D80000E94050A81E1C4FF21C00E94050A82E188
:101D9000C5FF1FC00E94050A83E1C6FF1DC00E9447
:101DA000050A84E1C7FF1BC00E94050A40E06C2FB2
:101DB00082E6EBCE0E94BF09D6CF0E94BF09D8CFE2
:101DC0000E94BF09DACF0E94BF09DCCF0E94BF0981
:101DD000DECF0E94BF09E0CF0E94BF09E2CF0E9480
:101DE000BF09E4CF85E120FF29C00E94050A86E1F2
:101DF000C1FF27C00E94050A87E1C2FF25C00E94DB
:101E0000050A88E1C3FF23C00E94050A89E1C4FFD7
:101E100021C00E94050A8AE1C5FF1FC00E94050A71
:101E20008BE1C6FF1DC00E94050A8CE1C7FF1BC0E5
:101E30000E94050A40E06C2F83E6A7CE0E94BF09EE
:101E4000D6CF0E94BF09D8CF0E94BF09DACF0E9427
:101E5000BF09DCCF0E94BF09DECF0E94BF09E0CFDF
:101E60000E94BF09E2CF0E94BF09E4CF1F93CF9326
:101E7000DF93EC01162F0E94C326181721F0612F63
:101E8000CE010E94CB26CE01DF91CF911F910C9401
:101E9000E40BCF93DF93863823E0920739F138F4CF
:101EA00081389340E9F08FEFDF91CF910895873823
:101EB00023E09207F1F088389340A9F7C62F86E80F
:101EC00093E00E94E40BD82F87E893E00E94E40B94
:101ED00090E06C2F2FEFD29F800D911D112402C036
:101EE00081E893E0DF91CF910C94360F86E893E080
:101EF000F9CF87E893E0F6CF0F931F93CF93DF934B
:101F00000FB7F8940FB6F894A89581B5886181BD94
:101F100011BC0FBED0E0C0E0FE01E457FF4F1491AA
:101F2000CE010E94C326181721F0612FCE010E9416
:101F3000CB262196CD3281E0D80771F781E893E076
:101F40000E94C326813029F061E081E893E00E947D
:101F5000CB26CCE1D1E01FEF89919991FC0111834F
:101F60000E945F06F1E0C433DF07B1F70FBF88E1DD
:101F70009BE00FB6F894A89581BD0FBE91BDDF918F
:101F8000CF911F910F9108951F93CF93DF93EC0191
:101F9000162F089779F4662319F10E947C0F80E0D0
:101FA00090E0892BB9F0612FCE01DF91CF911F9185
:101FB0000C94000080E090E0892BA9F781E0C11526
:101FC00090E1D90708F080E0111105C0DF91CF91B1
:101FD0001F91089581E027972297C0F780E0F6CF00
:101FE00080E090E0892BF9F681E0F0CF2F923F92CC
:101FF0004F925F926F927F928F929F92AF92BF9219
:10200000CF92DF92EF92FF920F931F93CF93DF93C4
:1020100000D000D000D0CDB7DEB78C01E0E0AE2E0E
:10202000E0E0BE2EF0E02F2EF0E03F2E412C512CB0
:1020300032014394B0E08B2EB0E09B2E80E0C82E9E
:1020400080E0D82ED8015B96ED91FC91309709F491
:102050005BC24281618180810E948408F801038C07
:10206000F48DE02DFD83EC838081803409F45BC125
:1020700008F04BC0893209F4C4C108F5843209F470
:10208000A7C198F4813209F46FC1833209F478C191
:10209000811113C0E0E0F0E0EF2B79F0AC81BD815D
:1020A00011968C910E94000008C0863209F47CC110
:1020B00008F44DC0883209F498C180E015C28D3211
:1020C00009F4BFC170F48B3209F4B0C108F4A4C1A3
:1020D000C114D10491F3EC81FD81618185E090E030
:1020E0008DC18F3209F4C2C108F4B6C1803309F43E
:1020F000C8C1813311F7E0E0F0E0EF2BF1F2AC81E1
:10210000BD8111966C9182E0C6C1813609F4BCC0D4
:1021100080F5803509F45CC188F4823409F41AC171
:1021200008F40DC1833449F6A114B10431F2AC8135
:10213000BD8111966C9184E090E0FEC08E3509F46B
:10214000ADC1803609F497C0813509F0B6CF81144E
:10215000910409F4B2CFAC81BD8111968C9170E0ED
:1021600060E087FF03C061E070E080580E940000DB
:10217000A4CF8D3609F49BC0A0F4833609F491C036
:1021800008F488C08C3609F098CF80E090E0892B65
:1021900009F493CFAC81BD8111968C910E9400000F
:1021A0008CCF873709F491C108F58E3609F085CFB9
:1021B000AC81BD811396ED91FC911497309709F491
:1021C000A3C180818F3609F078CF2114310409F43E
:1021D00074CF11962C91622F661F6627661F81812E
:1021E000B0E88B9FC0011124822B9AC08B3709F471
:1021F000DBC18F3709F061CFAC81BD811196EC90C6
:10220000F12CBFEFEB1ABCEFFB0AB701C8010E942B
:102210003B07882309F467C1E5E8EE16E3E0FE0614
:1022200009F461C1FDEAEF16F3E0FF0609F482C28A
:1022300025EDE21623E0F20609F47CC234E8E31649
:1022400033E0F30659F04CEAE41643E0F40631F0CB
:1022500084EDE81683E0F80609F05EC2AC81BD812A
:1022600012968C91883009F057C20E947C0FC801E9
:102270000E945E075FC2AC81BD8111966C9181E0C6
:1022800090E00E94EC0A19CFEC81FD81618182E02F
:1022900090E0F7CFAC81BD8111966C9183E090E026
:1022A000F0CFEC81FD81618184E090E0EACFAC81E8
:1022B000BD8111966C911197862F8F7711968C9313
:1022C0002114310409F4F9CE661F6627661FD80170
:1022D0005B96ED91FC918181811121C081E0809319
:1022E000D00161110EC08091D00187FDE6CE60E083
:1022F00090E00E9400008091D0018F5F8093D00118
:10230000F2CF8091D00187FDD8CE61E090E00E94AD
:1023100000008091D0018F5F8093D001F2CF90E0D8
:102320000E940000CACEA114B10409F4C6CEEC810B
:10233000FD81618181E090E00E940000BECEA11489
:10234000B10409F4BACEAC81BD8111966C9182E0E2
:1023500090E0F2CFA114B10409F4AFCEEC81FD817D
:10236000618183E090E0E8CFE0E0F0E0EF2B09F45A
:10237000A4CEAC81BD8111968C910E9400009DCEAF
:10238000E0E0F0E0EF2B09F498CEAC81BD8111962E
:102390008C9190E087FF05C0819590E091958195A3
:1023A00091090E94000089CEE0E0F0E0EF2B09F4F3
:1023B00084CEAC81BD8111968C9190E087FF05C0E1
:1023C000819590E09195819591090E94000075CECC
:1023D000EC81FD81818170E060E087FF03C061E0F6
:1023E00070E080580E94E60B68CEC114D10409F455
:1023F00064CEEC81FD81618181E090E00E9400006B
:102400005CCEC114D10409F458CEAC81BD811196C3
:102410006C9182E090E0F2CFC114D10409F44DCE6A
:10242000EC81FD81618183E090E0E8CFC114D104AB
:1024300009F443CEAC81BD8111966C9184E090E0AB
:10244000DDCFC114D10409F438CEAC81BD81119621
:102450006C9186E090E0D2CFC114D10409F42DCE66
:10246000EC81FD81618187E090E0C8CFC114D10487
:1024700009F423CEAC81BD8111966C9188E090E087
:10248000BDCFE0E0F0E0EF2B09F417CEAC81BD81C9
:1024900011966C9181E00E9400000FCEAC81BD814D
:1024A0001396ED91FC911497309771F180818F35DF
:1024B00009F003CE20E030E0232B09F4FECD91811A
:1024C00011968C910E940000F8CDEC81FD81E18095
:1024D000F12CFFEFEF1AFCEFFF0AB701C8010E94D1
:1024E0003B0781112AC081E0D8015B96ED91FC91F8
:1024F0005C9723813481148213825C963C932E93E3
:102500005B97813009F49ECD26960FB6F894DEBF16
:102510000FBECDBFDF91CF911F910F91FF90EF9034
:10252000DF90CF90BF90AF909F908F907F906F90F3
:102530005F904F903F902F90089521E8E21623E09E
:10254000F20601F134E8E31633E0F30659F145E809
:10255000E41643E0F406A1F08CEAE81683E0F806FE
:1025600009F19DEAE91693E0F90651F0A4EDEA16A7
:10257000A3E0FA06B9F0B5EDEB16B3E0FB0671F493
:102580008AE002C0F8018081AC81BD8112969C91E5
:102590009813A9CFC8010E945E07A5CFC7010E946A
:1025A000770CF2CF8DE0F0CFEC81FD81F181F983E2
:1025B000EF2EF12C2FEFE21A2CEFF20AB701C8012F
:1025C0000E943B07882309F48ECFAC81BD8112960F
:1025D000BC91BA838B2F90E09C0144E03595279500
:1025E0004A95E1F7E22FE170EE83E093CF019C0181
:1025F00053E0359527955A95E1F7F22FF170FB835B
:10260000F093CE019C0135952795422F4170440FE0
:1026100095958795959587958170880F880F840F7C
:10262000B170B80FBC83B093CD0181E8E81683E0A8
:10263000F806B9F4D8018C918093CC01E130B1F166
:102640008091CC0190E00C8002C0959587950A940A
:10265000E2F781709927BB81B817190609F043CFBB
:1026600099CFE4E8EE16E3E0FE0651F0FCEAEF163F
:10267000F3E0FF0629F024EDE21623E0F20691F5DF
:102680008DE08093CC019E819130D1F6C7018458B2
:102690009340029708F427CF89818B5A823008F43F
:1026A00022CF8981835D823008F41DCFD301C2011E
:1026B0000C8004C0880F991FAA1FBB1F0A94D2F771
:1026C0002091CC01EA81E3FF22C0822B8093CC01D0
:1026D0006091CC01C7010E94490F9091CC018913F0
:1026E00002CF58CF35E8E31633E0F30651F04DEA58
:1026F000E41643E0F40629F085EDE81683E0F806D9
:1027000011F48AE0BECFC7010E94770CBACF482FE0
:102710004095822F8423DACFEC81FD816281C7014D
:102720000E94490FD8015B96ED91FC919281891727
:1027300009F49DCDB1E8EB16B3E0FB0609F0D3CE6A
:1027400081E893E00E94E40BF8018083CCCEAF9245
:10275000BF92CF92DF92EF92FF920F931F93CF938E
:10276000DF93C091DE01D091DF011091CB011111F7
:102770001AC0FE0190E080E025813681232B09F00C
:102780005AC025E0289FF001299FF00D11243296B0
:10279000EC0FFD1FF093CA01E093C901309709F4D3
:1027A0003FC014821382A090C901B090CA01A11445
:1027B000B104B1F10E947F04C090C501D090C60160
:1027C000E090C701F090C8016C197D098E099F093E
:1027D0006A30710581059105C8F11092CB010E9404
:1027E0007F046093C5017093C6018093C7019093E5
:1027F000C8018D8D9E8D0E940207F501908188236E
:1028000019F19160908381E08093CB010E941704BD
:102810006093C1017093C2018093C3019093C4017E
:10282000DF91CF911F910F91FF90EF90DF90CF90AC
:10283000BF90AF900895019635968530910509F0C7
:102840009BCFF0E0E0E0A6CF9E7FDCCF0E94170494
:10285000C090C101D090C201E090C301F090C401CA
:102860006C197D098E099F096531710581059105F6
:10287000B8F20E9417046C197D098E099F09643F04
:1028800071408105910560F68D8D9E8D212F2770F9
:10289000C12CD12C7601C39404C0CC0CDD1CEE1CE1
:1028A000FF1C2A95D2F7103108F049C00E94020798
:1028B000E12FE695E695E695EA0DFB2DF11D8823BF
:1028C000D1F18081C82AC08201E0010F0093CB01C1
:1028D0000E9417046093C1017093C2018093C301E9
:1028E0009093C401177F173019F0083109F098CF81
:1028F0000E947F046093C5017093C6018093C70155
:102900009093C801003141F1083109F089CF0B8D56
:102910001C8D8091C9019091CA019C8F8B8FCE0133
:102920000E94F60FE091C901F091CA01148213824E
:102930001C8F0B8F2CC0C0948081C822C4CF0E94F2
:102940000207F5019281882319F0C92AC282BCCFFF
:10295000C0949C219283B8CFA091C901B091CA01C3
:102960008C91982F977F973709F45ACF8B3709F4BA
:1029700057CFEB8DFC8D309721F4BC8FAB8F07C008
:10298000FC01838194810097D9F7B483A3831092CB
:10299000CB0146CF0F931F93CF93DF932091640217
:1029A000222329F08F30910541F48FE090E0DF91F0
:1029B000CF911F910F910C94360F162FEC018FE0E1
:1029C00090E00E94E40B082F80E190E00E94E40B6D
:1029D00008130DC0C730D10531F0C830D10521F43E
:1029E000183031F0FFCFFFCF612FCE01E0CFFFCF06
:1029F0000E947C0F88E0DF91CF911F910F91089585
:102A00008331910588F48131910530F4813091054D
:102A100019F08930910531F42FEF3FEF30938002A8
:102A200020937F020C94CA148D319105D9F7677FEA
:102A30006093820220916C022F73362F307C232BFF
:102A400020936C02E9CFCF93DF93E7E8F2E085E1D2
:102A5000DF011D928A95E9F782E990E09093860262
:102A60008093850282E590E09093840280938302B4
:102A7000CCE6D2E0188219828FEF9FEF9C8B8B8B74
:102A80001D8A83E080936B0243E050E065E075E0CF
:102A900089890E9400058DE190E00E94E40C682F76
:102AA0006F738DE190E00E9400158E8B6BE087E0E4
:102AB00090E00E9400156DE088E090E00E94001513
:102AC00080E0DF91CF910C94D50B89B78F7B89BFC4
:102AD0008DEA91E090930D0180930C010E942315E3
:102AE00010926A021092690208950F931F930E9438
:102AF00017040091650210916602209167023091DF
:102B00006802601B710B820B930B613F794482401A
:102B1000910508F456C08091640281110BC0809128
:102B2000690290916A0281309105B1F188F00297B3
:102B300009F444C00E941704609365027093660212
:102B4000809367029093680281E01F910F9108952E
:102B500080E390E00E94CA0C80FF0EC041E050E08C
:102B60006AE878E086E00E948B0481E090E0909330
:102B70006A0280936902DECF8DE190E00E94CA0C68
:102B800082FFD8CF41E050E06EEA71E086E00E941B
:102B90008B0482E090E0EBCF89B78F7B89BF8DEA11
:102BA00091E090930D0180930C018DE190E00E94E3
:102BB000CA0C82FDE7CF0E946515BCCF109263025C
:102BC000FACF80E0C2CFBF92CF92DF92EF92FF9216
:102BD0000F931F93CF93DF938B01B42E690182FF74
:102BE00023C083FF17C061E0C8010E94C40F88237F
:102BF000D9F16B2DC8010E9400158B1135C0F6016B
:102C0000DF91CF911F910F91FF90EF90DF90CF90C8
:102C1000BF90099460E0C8010E94C40F882321F18D
:102C2000C8010E94E40CE9CF842F8770C1E0D0E096
:102C30007E0101C0EE0C8A95EAF7D42FD870CB0143
:102C40000E94E40CC82FB4FE1CC061E0C8010E94C1
:102C5000C40F882349F0DD2389F0CE296C2FC801E9
:102C60000E9400158C1759F2DF91CF911F910F919F
:102C7000FF90EF90DF90CF90BF900895E094CE2129
:102C8000EDCF60E0C8010E94C40F882369F3CE2114
:102C9000DD2319F0C111B3CFE7CFCC2309F4AFCFB7
:102CA000E3CFCF92DF92EF92FF920F931F93CF93D8
:102CB000DF937C016B01C42F122FD42FD07E809123
:102CC0006C0287FF2BC0D03EB9F5C0906D02CC20BE
:102CD00099F1D12CC6010E94E40CD82FC6010196AF
:102CE0000E94E40C982F8D2FE816F90629F56C2F19
:102CF00070E0762F662766277370612B6F5F7F4FBA
:102D00002FE436E0402F8C2FDF91CF911F910F9150
:102D1000FF90EF90DF90CF900C94E31580FD32C0D0
:102D2000D03609F464C088F4D03209F447C0D034F6
:102D300009F45DC0DD2379F1DF91CF911F910F91EF
:102D4000FF90EF90DF90CF900895D03A09F483C0C0
:102D500090F42C2F2F7141E050E0D03869F7B60184
:102D6000C701DF91CF911F910F91FF90EF90DF90FE
:102D7000CF900C94360DD03C09F476C0D03E09F4C7
:102D8000B6CFDACF0E94E60C8E159F0549F2E1140A
:102D9000F10431F2D1CF8C2F8E7071F680E090E08B
:102DA000892B51F28C2F8170DF91CF911F910F9160
:102DB000FF90EF90DF90CF900C940000CF71CF3157
:102DC00009F0BACF412F4F7771F0413071F0111FE8
:102DD0001127111F212F30E00FE710E0B601C701C6
:102DE0000E94960AA9CF41E0F2CF40E0F0CF2C2F0D
:102DF00030E08C2F8F71813029F030F0803121F05C
:102E00008131F9F440E001C041E025FB222720F99F
:102E10000DE110E030E0B601C7010E94960A80E0A3
:102E200090E0892B09F488CF4C2FB601C701DF91C0
:102E3000CF911F910F91FF90EF90DF90CF900C9466
:102E40000000C901880F991F8E71C4FB442740F907
:102E5000482B4250DACF2C2F2F7043E050E0C4FFB4
:102E60007ECF42E050E07BCFCF71CE3139F0CF3111
:102E700009F062CF212F45E050E071CF212F44E0CF
:102E800050E06DCFCF92DF92EF92FF920F931F939E
:102E9000CF93DF93EC017B0141305105F9F4CD80F4
:102EA000DE802496C114D104E9F462E070E081E090
:102EB00090E00E942B278C01009731F0FC01F182F9
:102EC000E08288818F5F8883C801DF91CF911F9155
:102ED0000F91FF90EF90DF90CF900895C884D98430
:102EE0002796E0CF88818F5F8883C82FD0E062E08B
:102EF00070E0CE010E942B278C0120E0BE016150C2
:102F00007109822F90E08617970774F4880F991F34
:102F1000F601E80FF91F40815181800F911FFC01DC
:102F2000518340832F5FEDCFC150D048CC0FDD1FC0
:102F3000C00FD11FF982E882C6010E94E327C4CFE7
:102F40004F925F926F927F92AF92BF92CF92DF9239
:102F5000EF92FF920F931F93CF93DF93CDB7DEB71E
:102F6000C154D1090FB6F894DEBF0FBECDBF5C01CE
:102F7000F82E6E0182E2C80ED11C8601802F8C19BA
:102F80008F1540F489E393E00E94CF07F801819305
:102F90008F01F4CFF12C8AE0482E512C612C712C3A
:102FA000F5E0AF16B10409F064C00091EA01109198
:102FB000EB0101151105A9F13CA14BA12AA1F801D2
:102FC00090E080E065817681672B31F555E0589F70
:102FD0007001599FF00C1124C7010296800F911FB8
:102FE000E00EF11EF701168215822283438334839B
:102FF000F801C38CD48C322F377F373741F5F80175
:10300000948F838FC8010E94F60FF70116821582F4
:10301000F801D48EC38E05C0019635968530910592
:1030200089F6CF5BDF4F0FB6F894DEBF0FBECDBF82
:10303000DF91CF911F910F91FF90EF90DF90CF9094
:10304000BF90AF907F906F905F904F9008952B3717
:10305000B1F2C114D10421F4948F838FE2CF6901BE
:10306000F6012381348121153105C9F794838383C7
:10307000D8CF8F2D90E08A159B059CF68C0D9D1D59
:10308000FC01208130E050E040E019A28E010F5D8C
:103090001F4FCA01B901A30192010E94EC26605D95
:1030A000F80162938F01211531054105510589F71A
:1030B000309761F001900020E9F73197AF01401B94
:1030C000510BB8018CE992E00E94560342E050E0B7
:1030D00068E571E08CE992E00E945603F394C9CF51
:1030E0001F920F920FB60F9211240BB60F922F93CF
:1030F0003F934F935F936F937F938F939F93AF9380
:10310000BF93EF93FF938CE992E00E944C02FF91F2
:10311000EF91BF91AF919F918F917F916F915F914F
:103120004F913F912F910F900BBE0F900FBE0F90BC
:103130001F9018951F920F920FB60F9211240BB685
:103140000F922F938F939F93EF93FF93E091AC0295
:10315000F091AD028081E091B202F091B30282FD64
:103160001DC090818091B5028F5F8F732091B60250
:10317000821741F0E091B502F0E0E456FD4F958FE3
:103180008093B502FF91EF919F918F912F910F90B6
:103190000BBE0F900FBE0F901F9018958081F2CF3D
:1031A0001F920F920FB60F9211242F933F938F937C
:1031B0009F93AF93BF938091D6019091D701A09137
:1031C000D801B091D9013091D50123E0230F2D37DB
:1031D00068F126E8230F0296A11DB11D2093D501A9
:1031E0008093D6019093D701A093D801B093D901D1
:1031F0008091DA019091DB01A091DC01B091DD01B9
:103200000196A11DB11D8093DA019093DB01A0937B
:10321000DC01B093DD01BF91AF919F918F913F9100
:103220002F910F900FBE0F901F9018950196A11D22
:10323000B11DD4CF1F920F920FB60F9211240BB66F
:103240000F922F933F934F935F936F937F938F933F
:103250009F93AF93BF93EF93FF93E0910E01F09193
:103260000F010995FF91EF91BF91AF919F918F91C0
:103270007F916F915F914F913F912F910F900BBE76
:103280000F900FBE0F901F9018951F920F920FB6C0
:103290000F9211240BB60F922F933F934F935F938E
:1032A0006F937F938F939F93AF93BF93EF93FF930E
:1032B000E0910C01F0910D010995FF91EF91BF9103
:1032C000AF919F918F917F916F915F914F913F91BE
:1032D0002F910F900BBE0F900FBE0F901F9018955F
:1032E0001F920F920FB60F9211240BB60F922F93CD
:1032F0003F934F935F936F937F938F939F93AF937E
:10330000BF93EF93FF93E0910A01F0910B010995B0
:10331000FF91EF91BF91AF919F918F917F916F91AD
:103320005F914F913F912F910F900BBE0F900FBE69
:103330000F901F9018951F920F920FB60F921124A5
:103340000BB60F922F933F934F935F936F937F939F
:103350008F939F93AF93BF93EF93FF93E0910801F7
:10336000F09109010995FF91EF91BF91AF919F9164
:103370008F917F916F915F914F913F912F910F901E
:103380000BBE0F900FBE0F901F9018951F920F92BB
:103390000FB60F9211240BB60F922F933F934F93BA
:1033A0005F936F937F938F939F93AF93BF93EF93AD
:1033B000FF93E0910601F09107010995FF91EF91CC
:1033C000BF91AF919F918F917F916F915F914F913D
:1033D0003F912F910F900BBE0F900FBE0F901F903B
:1033E00018951F920F920FB60F9211240BB60F92E1
:1033F0002F933F934F935F936F937F938F939F93FD
:10340000AF93BF93EF93FF93E0910401F091050117
:103410000995FF91EF91BF91AF919F918F917F910E
:103420006F915F914F913F912F910F900BBE0F9035
:103430000FBE0F901F9018951F920F920FB60F920C
:1034400011240BB60F922F933F934F935F936F937B
:103450007F938F939F93AF93BF93EF93FF93E091ED
:103460000201F09103010995FF91EF91BF91AF9196
:103470009F918F917F916F915F914F913F912F918C
:103480000F900BBE0F900FBE0F901F9018951F92BC
:103490000F920FB60F9211240BB60F922F933F93FA
:1034A0004F935F936F937F938F939F93AF93BF934C
:1034B000EF93FF93E0910001F09101010995FF91D5
:1034C000EF91BF91AF919F918F917F916F915F919C
:1034D0004F913F912F910F900BBE0F900FBE0F9009
:1034E0001F9018951F920F920FB60F9211240BB6D2
:1034F0000F922F933F934F935F936F937F938F938D
:103500009F93AF93BF93EF93FF9380917100887F58
:10351000803609F44DC008F040C0883209F4A9C0D3
:1035200028F5803109F49DC0C8F4882309F4FBC054
:10353000883009F496C0FF91EF91BF91AF919F91B0
:103540008F917F916F915F914F913F912F910F904C
:103550000BBE0F900FBE0F901F901895883109F485
:1035600088C0803241F780933C0214C0803409F453
:103570009DC040F48033B9F38833E9F680933C0270
:1035800085ECB0C0803509F485C0883509F496C053
:10359000883489F60E948E07CECF883909F48CC012
:1035A00038F5883729F050F4883611F0803719F64D
:1035B00083E080933E021092C00157C0883809F41E
:1035C0007BC0803919F0803809F0B5CF8091C001F7
:1035D000803208F071C0E091C00181E08E0F8093CD
:1035E000C00180917300F0E0E056FE4F80833DC043
:1035F000803B39F0E0F4803A09F479C0883A09F068
:103600009ACF84E080933E0210929F0110929E0117
:10361000E091E201F091E301099580919E01811111
:103620000FC081E080939E0110927E0109C0803C12
:1036300009F4A6CF883C09F4A3CF883B09F07BCFDF
:10364000E0919F0181E08E0F80939F01F0E0E258AE
:10365000FE4F80818093730090919F0180919E0125
:1036600029C0809119028093730085EC80937400C7
:1036700062CF90913B0280913A02981758F5E09101
:103680003B0281E08E0F80933B02F0E0E65EFD4F4F
:103690008081E9CFE0913B0281E08E0F80933B0275
:1036A00080917300F0E0E65EFD4F808390913B02D5
:1036B00080913A029817C8F285E8D8CFE0913B0292
:1036C00081E08E0F80933B0280917300F0E0E65E14
:1036D000FD4F808380913D0281115CCF81E080931A
:1036E000180284EA8093740010923E0224CF85EC85
:1036F0008093740010923E028091C001803230F4B9
:10370000E091C001F0E0E056FE4F10826091C001F0
:1037100070E0E091E001F091E10180EA91E009952B
:103720001092C00108CF10923C0234CF1F920F922A
:103730000FB60F9211248F9381E080930F028F9127
:103740000F900FBE0F901F9018951F920F920FB6FB
:103750000F9211248F939F9378948091F801909108
:10376000F701891708F04DC0909162009160909325
:1037700062009091F601891708F047C090916500AA
:103780009860909365009091F501891708F041C009
:10379000C49A9091F401891708F03DC0DB9A90918A
:1037A000F3018917D0F5DA9A9091F2018917B8F5EB
:1037B000D99A9091F1018917A0F5D89A9091F001CA
:1037C000891788F51B9A9091EF01891770F51D9A5A
:1037D0009091EE01891758F5C69A9091ED018917DD
:1037E00040F51C9A9091EC01891728F5C59A8F5FD6
:1037F0008093F8019F918F910F900FBE0F901F90B3
:103800001895909162009E7FB2CF90916500977F4E
:10381000B8CFC498BECFDB98C2CFDA98C5CFD998BD
:10382000C8CFD898CBCF1B98CECF1D98D1CFC698F4
:10383000D4CF1C98D7CFC598DACFCF93DF93EC01C4
:1038400061E088810E94E60360E08881DF91CF918A
:103850000C94B803EF92FF920F931F93CF93DF93D3
:1038600010929F0210929E0288EE93E0A0E0B0E0DA
:103870008093A0029093A102A093A202B093A3020E
:1038800028E331E030939D0220939C0220E930E050
:103890003093A9022093A80229E230E03093AB02D2
:1038A0002093AA022BE230E03093AD022093AC02C9
:1038B0002AE230E03093AF022093AE0225E930E0F7
:1038C0003093B1022093B0022CE230E03093B30287
:1038D0002093B2021092B5021092B6021092B70273
:1038E0001092B80210923C0310923B0380933D0368
:1038F00090933E03A0933F03B09340038AE491E08A
:1039000090933A038093390310924703109248032F
:103910001092490310924A0310924B0310924C03E9
:1039200010924D0310924E0310924F0310925003C9
:103930001092510386E090E09093460380934503F4
:1039400083E190E00E94E40BC82F82E190E00E94A6
:10395000E40BD82F81E190E00E94E40B182F81E066
:1039600090E00E94E40B21E030E030933607209392
:103970003507309338072093370710923907109294
:103980003D0710923F0710923E0780933007212F8A
:10399000205C330BC9012D2F382FC90190933207BA
:1039A00080933107CF77C0933307109234078DE1AE
:1039B00080933A0762E070E08DE190E00E942B274F
:1039C00090933C0780933B070097C9F0EC0110E00F
:1039D000EE24E394F12C8AE090E00E944727FC015A
:1039E000F282E18213821482168215821782118676
:1039F00010861083899399931F5F1D3161F766E0EC
:103A000080E597E00E9417076EE18AE497E00E9444
:103A100017078DE080938D07C2E0C0938F07109247
:103A20009007DFEFD0938E07109291078DE897E013
:103A30000E941D1C04E000938807C0938A0781E060
:103A400080938B07D093890710928C0788E897E0C2
:103A50000E941D1C8EE080938307C0938507C0934E
:103A60008607D09384071092870783E897E00E9427
:103A70001D1C15E010937E07C093800783E0F82E8D
:103A8000F0928107D0937F07109282078EE797E02C
:103A90000E941D1CF0927907C0937B0700937C075E
:103AA000D0937A0710927D0789E797E00E941D1C4A
:103AB0008CE280937407C093760710937707D093B6
:103AC00075071092780784E797E00E941D1C8BE22F
:103AD00080936F07C093710786E080937207D0933D
:103AE0007007109273078FE697E00E941D1C8AE210
:103AF00080936A07C0936C0787E080936D07D0932B
:103B00006B0710926E078AE697E00E941D1C89E2FF
:103B100080936507C093670788E080936807D09318
:103B200066071092690785E697E00E941D1C8CE0ED
:103B300080936007C093620789E080936307D09306
:103B400061071092640780E697E00E941D1C80E1E7
:103B500080935B07C0935D078AE080935E07D093F4
:103B60005C0710925F078BE597E00E941D1C8DE2B9
:103B700080935607C09358078BE080935907D093E2
:103B8000570710925A0786E597E0DF91CF911F9172
:103B90000F91FF90EF900C941D1CCF93DF93CDB746
:103BA000DEB762970FB6F894DEBF0FBECDBF789434
:103BB00083B78C6483BF87B7816087BF82E08EBD87
:103BC0008EB581608EBD8FB581608FBD85B58460F7
:103BD00085BD85B5806485BD80918A0083608093B2
:103BE0008A0080918B00816080938B0087E886B982
:103BF0001AB80FB6F894A89581B5886181BD11BC3B
:103C00000FBEF8942FB7F89490E080E0FC01E451E7
:103C1000FE4F108201968C309105C1F780916200B1
:103C20008E7F8093620080916500877F809365001E
:103C3000C498DB98DA98D998D8981B981D98C6989C
:103C40001C98C5982FBF9FB7F89480916100816040
:103C50008093610080916400886080936400BC9AC6
:103C6000D39AD29AD19AD09A139A159ABE9A149A44
:103C7000BD9A9FBF1FBC89E08EBD81E194E09BBDD2
:103C80008ABD87B7806187BF1092F80161E087E144
:103C90000E94E60360E080E597E00E942C03E0913B
:103CA0004C07F0914D07908180914B0780958923B7
:103CB0008083E0914E07F0914F07808190914B07F0
:103CC000892B808329EDA22E21E0B22E3CE1C32E68
:103CD00031E0D32E99249394F501E490F12CC7019F
:103CE0000E94E40B182FC70101960E94E40B082FD5
:103CF000C70102960E94E40B882EC70103960E941A
:103D0000E40B90913A07191710F5D601ED90FC904D
:103D1000F70181828483812F0111D2C00E949A0110
:103D20003C0141E050E0B7010E944217D3011696D2
:103D30009C938E931597812F0E949A018C0150E0DD
:103D400040E0B7010E944217F80191878087A8954B
:103D5000B2E0AB0EB11CE2E0CE0ED11CF4E3CF1604
:103D6000F1E0DF0609F0B8CF61E070E084E090E0B8
:103D70000E942B2790933F0780933E07892B91F059
:103D800010E000E0E0903E07F0903F07E00EF11EEB
:103D9000802F0E94B90CD7018C930F5F1F4F043006
:103DA000110581F780E00E94A50C082F10E081E04A
:103DB0000E94A50C282F30E0322F222722273E7F99
:103DC000000F111F202B312B309341072093400708
:103DD00080FF05C02160309341072093400760E0D9
:103DE00086E10E94E603E9EBF2E08491E4E8F2E088
:103DF0000491EFE4F2E0149111117CC0FF24F394DC
:103E0000F0920D028FE190E00E9447278C0187E03D
:103E1000F801818386E090E00E9447276C0168E00A
:103E20000E941707D8015E96DC92CE925D971093A0
:103E30000C0200930B0281E893E00E94E40BF8016E
:103E40008083843008F076C1F80181818F3FF1F0E2
:103E50001093DF010093DE0160E00E94E60360E062
:103E6000D8015D968D919C910E942C03F80181816F
:103E70009CEF980F943020F08251843008F08FEF3F
:103E800042E050E067EA73E10E940005D80116960F
:103E90001C921E9215971B961C921E921A97509672
:103EA0001C921E921F9755961C921E9254975A96DA
:103EB0001C921E9259975C961C921E925B9729C089
:103EC0000E949A01DC0113969C92003809F433CFCA
:103ED000013809F03CCF812F0E949A018C0141E00A
:103EE00050E0B7010E944217D80116969C938E931A
:103EF00015972DCF81110E948303E12FF0E0EE0F83
:103F0000FF1FE75DFD4FA591B491EC91E02309F40B
:103F100075CF81E090E00E94E40B21E030E0309327
:103F200000022093FF018093010281E190E00E9452
:103F3000E40B21E130E030930302209302028093EE
:103F4000040282E190E00E94E40B22E130E0309331
:103F5000060220930502809307028DE190E00E9403
:103F6000CA0C81FDE9C08DE190E090930902809335
:103F7000080210920A0286E080937D0280937E02FE
:103F800060E00E94E60361E086E00E94B8030E94C0
:103F9000231580EA97E19093E9018093E80185EF8A
:103FA00092E09093E7018093E6011092E501109270
:103FB000E401109240021092620210923E0281E0EF
:103FC00080933D021092180261E083E10E94B803E1
:103FD00061E082E10E94B803809171008E7F80933E
:103FE0007100809171008D7F8093710088E48093CF
:103FF000700085E48093740086EF92E09093E30173
:104000008093E20182E093E09093E1018093E001EC
:1040100082E0809372008CE0809370001092EB013C
:104020001092EA01109288001092890010928A0082
:1040300010928B0080918A00846080938A00809126
:104040007D00846080937D00789488E19BE00FB6CA
:10405000F894A89581BD0FBE91BD72E0472E512CFA
:104060008091100281110DC00E94170460936502B7
:1040700070936602809367029093680281E0809358
:10408000100280910F02882309F448C010E001E07B
:1040900000933F021093610210924002109262025C
:1040A0000E94B201811105C080910E028F5F809342
:1040B0000E021F5F1F3761F780910E02882339F1CE
:1040C00061E070E090E00E942B278C019093FA0150
:1040D0008093F901E12CF12CDD24D394D0923F029E
:1040E000F092610210924002109262020E94B201AC
:1040F000811105C0F801EE0DF11DF082E394F394F7
:10410000BFE7FB12EBCF10928A0010927D00109255
:1041100088001092890010920F02A89580910D02DC
:10412000882301F180910B0290910C020E94F60FFE
:10413000A89596CFF08288CE85FD0DC0809116019E
:1041400090911701A09118018093080290930902A1
:10415000A0930A0210CF8091190190911A01A091A9
:104160001B01F2CF8091690290916A028130910522
:1041700009F4ABC248F10297D9F60E94430A809134
:104180006302882309F4E3C58AE497E00E940207EA
:10419000182F8111ECC58091350790913607019752
:1041A00009F0CFC590E080E00E94820A0E94430A95
:1041B0008AE497E00E9402078823D1F340E0612F50
:1041C00084E20E94480864C080916E028823B1F0A6
:1041D0000E947F0400916F02109170022091710281
:1041E00030917202601B710B820B930B653171056C
:1041F0008105910518F080E00E94D50B809189021D
:10420000882309F445C0F89488E0E4E9F2E0A2E4E8
:10421000B7E001900D928A95E1F7109289027894A7
:1042200030919402E6E9F2E090E080E0391721F065
:10423000219182279F5FFACF81112AC080E090E010
:10424000892B21F082E497E00E94000080914407CE
:10425000811125C090914507911121C080E090E027
:10426000892B19F080E00E94000080916E02882363
:1042700091F081E00E946A090E94D1090E9417040E
:104280006093650270936602809367029093680260
:104290000E9475154DCF81E00E94D50BEDCF909116
:1042A0006E02992309F486C08057803108F07FC0E0
:1042B00081E00E946A0910914207809175021813EB
:1042C0000AC0412F50E067E772E084E497E00E9463
:1042D0006C28892B61F01092740288E0E2E4F7E028
:1042E000A5E7B2E001900D928A95E1F7C5CF8091E4
:1042F00074028F5F80937402133009F040C0909174
:104300004407892F8770F0904507853029F4F09293
:1043100073020E946F04B0CF0DE110E0843091F081
:10432000282F30E08430F0F4009173020023D1F0A4
:104330000150110B000F111F000F111F020F131F4F
:104340000F5F1F4F93FF10C061E0C8010E94C40FB0
:10435000882309F491CF6F2DC8010E940015F8122F
:104360008BCFD7CF8901ECCF60E0C8010E94C40F8A
:10437000882309F481CFC8010E94E40CF0CF1430E7
:1043800009F07ACF80914407682F70E0762F662776
:104390006627737090914507692B6F5F7F4F2DE7FC
:1043A00034E0409146078C700E94E31565CF80E0B1
:1043B0000E94D50BE0914407EF3F61F480914507DF
:1043C00081115ACF80E090E0892B09F455CF0E94EB
:1043D000000052CFE7FD0DC000914707209146072E
:1043E0004091450770E060E08E2F90E00E945116EA
:1043F00043CFE03C08F058C130916C0237FF3CCF0E
:1044000020914507822F90E08C0100951095000FB8
:10441000111F000F111F007C1170EF730E2B95956B
:104420008795E82FE370BE2E80914207853041F5D5
:104430002C782C3029F50E94E60C8017910721F08A
:104440000F3F114009F018CF8091450790E0982F59
:1044500088278827937000914607080F192F111D90
:104460000F5F1F4FF090470761E0C8010E94C40F23
:104470006F2D882309F400CFC8010E940015FCCEDF
:10448000680121E0C21AD108CC0CDD1CCC0CDD1C6B
:10449000CB2876014FEFE41AF40A80918102882339
:1044A000F9F036FF41C0C70160E071E00E94D826F4
:1044B000682F81E090E00E940015C701F7FE02C05E
:1044C00081509F4F692F89E090E00E94001580E0A5
:1044D00090E0892B19F0C7010E9400001092810220
:1044E00080916C0280FD39C080914207843009F0D0
:1044F0004FC0809145078978813009F0BDCE609129
:10450000460780E090E0892B19F0C7010E94000067
:1045100080E090E0892B09F4AFCE409146076B2DE7
:10452000C7010E940000A8CEB8016F73772781E011
:1045300090E00E940015B801E6E075956795EA9550
:10454000E1F789E090E00E94001580E090E0892B7F
:1045500029F2C8010E940000C1CF86FF0DC00E9451
:10456000E60C8E159F0509F4BFCF5DEFE51657E009
:10457000F5060CF0B9CF80CE0E94E60C80179107AB
:1045800009F4B2CF0F3F81E0180709F4ADCF74CE24
:10459000833069F540914507942F9170C92E43FBF4
:1045A000DD24D0F880E090E0892B31F047702D2D8C
:1045B000B801C7010E94000080916C0286FF0BC009
:1045C00080E090E0892B09F457CE4D2D6C2DC7016A
:1045D0000E94000051CE80E090E0892B09F44CCE7F
:1045E0002D2D4C2D6B2DC8010E94000045CE86302C
:1045F00009F042CE80914507982F9978913021F0AB
:104600008F78803809F038CE80916C0286FF28C000
:104610000E94E60C8E159F05E9F48091460790E014
:10462000382F22272227337000914707020F132FBC
:10463000111D0F5F1F4FF090480795958795959531
:104640008795837099278230910599F0039709F433
:104650000BCF12CEADEFEA16A7E0FA06F4F60CCEB9
:104660000E94E60C80179107C1F20F3F1140A9F29A
:1046700003CEF4FE01CE61E0C8010E94C40F88237E
:1046800009F4FACDC8010E94E40C9F2D977061E0F7
:1046900070E001C0660F9A95EAF7F3FE02C0682B3E
:1046A000EBCE60956823E8CEE83E08F0E5CDE05C0F
:1046B000FF0B8091450700914807209147074091E3
:1046C000460761E070E09E2F91CE01EA13E09AE088
:1046D000E92EF12CDD24D39423E6C22E33E0B32E51
:1046E00042E0A42E5BE1352EF80183859485019785
:1046F00009F056C1E654F1098081918132966080BB
:104700007180680E791ED80151961C92519752966D
:104710001C92529716961C9216971A961C921A97EC
:104720001D961C921D971E961C921E971F961C92FA
:104730001F9717961C92179750961C925097539656
:104740001C92539719961C92199715961C921E92BB
:1047500014979301359527954801BCE58B1A91086C
:10476000F40161E070E086899789A72FA69541E062
:1047700050E04C0F5D1F4A0F511DDA0141E0281730
:1047800039070CF040E04C93713248F4408D518D64
:10479000840F951F8E579109C19708F460E07E5FE2
:1047A0003496743201F7FE013196CE9C9001CF9C75
:1047B000300D112443E257E0421B530B90E080E0A0
:1047C000708171118FC071817111A6C0D401A80FC1
:1047D000B91F1D961C92019632968930910581F77A
:1047E000F80180819181A281B38185519540A10911
:1047F000B10983359B40A105B10508F06EC1662360
:1048000009F46BC181E046E9641671040CF080E0A4
:10481000D80151968C93F801EC54F10990813197AD
:104820008081B9E08B9F802D1124939D800D1124F0
:1048300032979081890F31964081942F990F940F70
:10484000890FF8018683EB54F10946E96416710477
:104850000CF42EC181E09081913009F080E0D80104
:104860001D968C938989880F9F85890F880F9D8558
:10487000890F880F9B85890F91E009F090E0F8017E
:10488000968791E0813009F090E0D8011F969C93C3
:1048900081118150F80187838289882309F456C0E9
:1048A0008C85880F9E85890F880F9889890F880FBE
:1048B0009A89890FEEEFE80FEE3008F047C0F0E07C
:1048C000EC59FB4D0C940E2799249924A124A12482
:1048D00044254425A624A624492549254D254D25B2
:1048E000522552257130C1F42180A1E02A1206C060
:1048F000DA01A80FB91F1D962C926DCF21100CC0A4
:10490000D401A80FB91F1D96AC92853008F463CF6F
:10491000D80152967C935FCF853048F0DA01A80F1A
:10492000B91F1D96BC92D8015296DC9254CF60E01C
:1049300057CFD8011996AC921997817053968C93E2
:1049400005C041E050E0F8015583448389E090E0E0
:10495000FAE0EF16F10411F08E199F09D8011C96A8
:104960005C924E921B97C89EB001C99E700D112497
:10497000FB01E455FC4F80819181029789F46E5AC6
:104980007C4F49E050E080E397E0821B930B0E944C
:104990006C28892B29F423E030E0F8013487238741
:1049A000F1E0EF1AF1080D591F4FE114F10409F07D
:1049B0009BCEECEAF3E090E080E02081318123306F
:1049C000310509F092C023E6289F8001299F100D30
:1049D0001124F801E455FC4F84E090E0918380833A
:1049E0000E5A1C4F0115110509F452CCF801EB5A6F
:1049F000FF4FE080F12C809101029701281B3109C3
:104A0000C9012130310509F4DBC00CF076C0892BD7
:104A100009F032CC8091FE01F801E45AFF4F9081F9
:104A2000992309F48FC080618093FE018091FE017B
:104A3000F801E85AFF4F9081923009F49EC008F0C7
:104A400083C0913009F48DC02091FE0141E050E017
:104A500070E060E0C7010E94360DF801ED5AFF4F8B
:104A6000808191818130910509F09DC033968091BC
:104A700001020DE110E021E030E0408170E060E0F3
:104A800090E00E94960AF8CBD8011996BC9219972B
:104A900054CFF8015582448259CFD8011996DC923F
:104AA00019974BCF44E0F80141878170838B4ECF3B
:104AB0008081811112C08F85880F9D85890F880F95
:104AC0009B85890FD8011A968C9381E09989913042
:104AD00009F080E0F801808B39CFE5E0F0E0D80103
:104AE0001C96FC93EE931B975BCF0196ED59FF4FFD
:104AF0008A30910509F061CFCBCB2230310509F422
:104B0000A9C02330310509F0B7CB80E390E00E94C3
:104B1000E40B83FFB1CB8091FB01F801E85AFF4F12
:104B20009081923009F4F7C008F0DCC0913009F4AC
:104B3000E6C02091FB0144E050E070E060E0C70176
:104B4000039757C08F7E70CF933009F1943009F0EE
:104B50007BCFF801EE59FF4F9081992311F18860C6
:104B600007C0F801EE59FF4F9081992321F0816031
:104B70008093FE0169CF8E7FFBCFF801EE59FF4F86
:104B80009081992311F08260F3CF8D7FF1CFF801EE
:104B9000EE59FF4F9081992311F08460E9CF8B7F0C
:104BA000E7CF877FE5CF029709F066CBF801EA5A95
:104BB000FF4F809101020DE110E030E020E05DCF79
:104BC00080E390E00E94E40B81FF56CB8091FD01D1
:104BD000F801E85AFF4F9081923031F168F491303A
:104BE000B9F02091FD0142E050E070E060E0C701C3
:104BF00001970E94360D40CB933001F1943089F734
:104C0000F801EE59FF4F9081992311F1886007C098
:104C1000F801EE59FF4F9081992321F08160809334
:104C2000FD01DFCF8E7FFBCFF801EE59FF4F908162
:104C3000992311F08260F3CF8D7FF1CFF801EE5907
:104C4000FF4F9081992311F08460E9CF8B7FE7CFEC
:104C5000877FE5CF80E390E00E94E40B82FF0CCBDE
:104C60008091FC01F801E85AFF4F9081923021F1C8
:104C700058F49130A9F02091FC0143E050E070E03D
:104C800060E0C7010297B5CF933001F1943099F7F6
:104C9000F801EE59FF4F9081992311F1886007C008
:104CA000F801EE59FF4F9081992321F081608093A4
:104CB000FC01E1CF8E7FFBCFF801EE59FF4F9081D1
:104CC000992311F08260F3CF8D7FF1CFF801EE5977
:104CD000FF4F9081992311F08460E9CF8B7FE7CF5C
:104CE000877FE5CF933009F1943009F022CFF801A6
:104CF000EE59FF4F9081992311F1886007C0F801A8
:104D0000EE59FF4F9081992321F081608093FB0140
:104D100010CF8E7FFBCFF801EE59FF4F9081992382
:104D200011F08260F3CF8D7FF1CFF801EE59FF4F84
:104D30009081992311F08460E9CF8B7FE7CF877F43
:104D4000E5CF81E090E00E94820A10E82FCA80E55A
:104D500097E00E940207811106C081E090E00E9466
:104D6000820A10E82BCA90E080E00E94820A10E0DC
:104D700025CA60E08AE497E00E942C0360E080E5A9
:104D800097E00C942C03E199FECF9FBB8EBBE09A79
:104D900099278DB30895262FE199FECF9FBB8EBB37
:104DA0002DBB0FB6F894E29AE19A0FBE01960895D2
:104DB00097FB072E16F4009407D077FD09D00E94C8
:104DC000172707FC05D03EF4909581959F4F0895D5
:104DD000709561957F4F0895A1E21A2EAA1BBB1B07
:104DE000FD010DC0AA1FBB1FEE1FFF1FA217B307B7
:104DF000E407F50720F0A21BB30BE40BF50B661FCD
:104E0000771F881F991F1A9469F760957095809590
:104E100090959B01AC01BD01CF010895EE0FFF1FDE
:104E20000024001C0BBE0790F691E02D0994AA1BEC
:104E3000BB1B51E107C0AA1FBB1FA617B70710F085
:104E4000A61BB70B881F991F5A95A9F780959095B7
:104E5000BC01CD0108950F931F93CF93DF93869FDD
:104E60008001879F100D969F100D1124C8010E948C
:104E70004727EC01009729F0A80170E060E00E944C
:104E80007928CE01DF91CF911F910F9108950F9353
:104E90001F93CF93DF938230910510F482E090E06E
:104EA000E0919407F091950730E020E0B0E0A0E0B9
:104EB000309799F42115310509F44AC0281B390BA4
:104EC00024303105D8F58A819B816115710589F1FE
:104ED000FB0193838283FE0111C0408151810281D5
:104EE000138148175907E0F04817590799F41097AC
:104EF00061F012960C93129713961C933296CF0181
:104F0000DF91CF911F910F91089500939407109313
:104F10009507F4CF2115310551F04217530738F0AA
:104F2000A901DB019A01BD01DF01F801C1CFEF0149
:104F3000F9CF9093950780939407CDCFFE01E20FB0
:104F4000F31F819391932250310939832883D7CF5E
:104F50002091920730919307232B41F42091120165
:104F60003091130130939307209392072091100101
:104F7000309111012115310541F42DB73EB7409113
:104F8000140150911501241B350BE0919207F0910B
:104F90009307E217F307A0F42E1B3F0B28173907DE
:104FA00078F0AC014E5F5F4F2417350748F04E0F85
:104FB0005F1F5093930740939207819391939FCFE4
:104FC000F0E0E0E09CCFCF93DF930097E9F0FC01A5
:104FD000329713821282A0919407B0919507ED0148
:104FE00030E020E01097A1F420813181820F931FDF
:104FF00020919207309193072817390709F061C073
:10500000F0939307E0939207DF91CF910895EA011F
:10501000CE17DF07E8F54A815B819E0141155105F6
:10502000B1F7E901FB83EA8349915991C40FD51F78
:10503000EC17FD0761F4808191810296840F951F22
:10504000E90199838883828193819B838A83F0E03D
:10505000E0E012968D919C9113970097B9F52D91F0
:105060003C911197CD010296820F931F20919207D8
:10507000309193072817390739F6309751F5109278
:10508000950710929407B0939307A0939207BCCF13
:10509000D383C28340815181840F951FC817D907DC
:1050A00061F44E5F5F4F88819981480F591F51838A
:1050B00040838A819B81938382832115310509F086
:1050C000B0CFF0939507E09394079ECFFD01DC01EC
:1050D000C0CF13821282D7CFFB01DC0104C08D91B7
:1050E0000190801921F441505040C8F7881B990B5A
:1050F0000895DC0101C06D9341505040E0F70895E0
:1051000011E0CDE6D1E004C0FE010E940E272196F9
:0A511000CE36D107C9F7F894FFCF9F
:10511A00AD010000000000000000000000000000D7
:10512A000000960780001D00021D00228D078807D7
:10513A0083077E07790774076F076A0765076007A1
:10514A005B075607000000006D0256030F02B40207
:10515A0040021E023202000000001608E907450854
:0C516A00BF07E207CF07C0070D0A0000D6
:00000001FF
